:10000000F8FF002011040000BF2E0000BF2E0000EA
:10001000BF2E0000BF2E0000BF2E0000BF2E00002C
:10002000BF2E0000BF2E0000BF2E0000BF2E00001C
:10003000BF2E0000BF2E0000BF2E0000BF2E00000C
:10004000BF2E0000BF2E0000BF2E0000BF2E0000FC
:10040000FFFFFFFFFFFFFFFFFFFFFFFFFEFFFFFFFD
:1004100062B604F0E1FEFEE7012110F01F029140F8
:10042000DFF8142640B2430942F82310704780B524
:10043000052001F07AFB012840F0FC8200A905208C
:1004400001F057FB9DF80000DFF8F015DFF8F0250C
:1004500012785054DFF8E8050078002805D1DFF85D
:10046000DC050078552840F0E582DFF8D4050078F7
:10047000401CDFF8CC150870DFF8C40500780B28A5
:1004800040F0D8820020DFF8B8150870DFF8AC051E
:100490004078512804D071D353284BD025D36DE038
:1004A000DFF898058078DFF89C150870DFF88C0578
:1004B000C078DFF890154870DFF880050079DFF824
:1004C00084158870DFF874054079DFF87815C870F6
:1004D000DFF868058079DFF86C150871DFF85C05D6
:1004E000C079DFF86015487148E0DFF85005807882
:1004F000DFF854150870DFF84405C078DFF84815B8
:100500004870DFF838050079DFF83C158870DFF8AF
:100510002C054079DFF83015C870DFF820058079A8
:10052000DFF824150871DFF81405C079DFF8181515
:10053000487123E0DFF804058078DFF810150870B3
:10054000DFF8F804C078DFF804154870DFF8EC0431
:100550000079DFF8F8148870DFF8E0044079DFF8FC
:10056000EC14C870DFF8D4048079DFF8E014087167
:10057000DFF8C804C079DFF8D4144871DFF8C40488
:100580004078DFF8C014097851EA002000B201F089
:10059000FBFA0022DFF8B83401F00EFB0022DFF88E
:1005A000B43401F035FC01F005FDDFF8AC1408604F
:1005B000DFF89004C078DFF88C14897851EA0020C5
:1005C00000B201F0E1FA0022DFF8843401F0F4FA1D
:1005D0000022DFF8803401F01BFC01F0EBFCDFF8B7
:1005E00078144860DFF85C044079DFF85814097922
:1005F00051EA002000B201F0C7FA0022DFF85034BF
:1006000001F0DAFA0022DFF84C3401F001FC01F0CD
:10061000D1FCDFF844148860DFF83C040268002154
:10062000002001F0F1FEDFF83004426801210020D3
:1006300001F0EAFEDFF8200482680221002001F0C8
:10064000E3FEDFF804044078DFF8FC13097851EA90
:10065000002000B201F098FA0022DFF8F43301F034
:10066000ABFA0022DFF8F43301F0D2FB01F0A2FC78
:10067000DFF8E4130860DFF8D003C078DFF8C813B0
:10068000897851EA002000B201F07EFA0022DFF8FA
:10069000C03301F091FA0022DFF8C03301F0B8FB5B
:1006A00001F088FCDFF8B0134860DFF89C03407964
:1006B000DFF89413097951EA002000B201F064FADE
:1006C0000022DFF88C3301F077FA0022DFF88C3358
:1006D00001F09EFB01F06EFCDFF87C138860DFF810
:1006E000780302680321002001F08EFEDFF8680322
:1006F00042680421002001F087FEDFF850034078B3
:10070000DFF84813097851EA002000B201F03CFA02
:100710000022DFF83C3301F04FFA0022DFF84033CB
:1007200001F076FB01F046FCDFF82C130860DFF8DF
:100730001C03C078DFF81413897851EA002000B256
:1007400001F022FA0022DFF8083301F035FA002226
:10075000DFF80C3301F05CFB01F02CFCBE49486073
:10076000BA484079B949097951EA002000B201F04C
:100770000BFA0022B64B01F01FFA0022B84B01F031
:1007800047FB01F017FCB4498860B34802680521B3
:10079000002001F039FEB04842680621002001F037
:1007A00033FEAD4882680721002001F02DFEAD48E0
:1007B000007801281DD1A8480068AB49096801F0FC
:1007C00035FEAA490860A4480068A7490860A848FF
:1007D0000068C82101FB00F1002001F09BFEA54943
:1007E000542001F000FF4420FFF716FE00209D4931
:1007F0000870A1480078002859D19748006801F096
:1008000009FF4FF4487148439C49086092480068CA
:1008100001F000FF4FF44871484399490860974838
:100820000068002812D5954800689649884202DA87
:10083000944892490860914800685FF0FF3148434E
:100840009149086000208D4908600CE08B480068E1
:1008500040F6FD01884203DB40F6FC008749086052
:1008600000208949086086480068002812D584481D
:1008700000688449884202DA8248814908608048D9
:1008800000685FF0FF3148438049086000207C49E0
:1008900008600CE07A48006840F6FD01884203DBFE
:1008A00040F6FC00764908600020784908606F48EF
:1008B00000685FF03F4101F0CFFE4AD201206E494F
:1008C000087065480168724801F0D8FE714901F06E
:1008D00017FF714901F0D2FE01F09CFE6A490860E1
:1008E0005D4801686A4801F0C9FE6A4901F008FFE5
:1008F000694901F0C3FE01F08DFE64490860624859
:100900000068B0F52F6F03DD4FF42F605E4908607B
:100910005D480068002802D500205B4908605B48FC
:100920000068B0F52F6F03DD4FF42F605749086062
:1009300056480068002802D500205449086000206D
:100940004E49086000204E49086000204749086071
:1009500058E046480068514901F03EFF52D8012056
:10096000454908704E480078002802D101204C49C2
:100970000870394801684B4801F080FE454901F094
:10098000BFFE0100444801F051FD01F043FE3B4928
:10099000086031480168434801F070FE3D4901F0AC
:1009A000AFFE01003C4801F041FD01F033FE344947
:1009B000086032480068B0F52F6F03DD4FF42F60F8
:1009C0002E4908602D480068002802D500202B49D8
:1009D00008602B480068B0F52F6F03DD4FF42F60DF
:1009E0002749086026480068002802D500202449CD
:1009F0000860002024490860002024490860002085
:100A00001A4908601D4802680421002002F04AF8D3
:100A10001D4802680521002002F044F818480268C9
:100A20000021012002F03EF818480268012101204F
:100A300002F038F801BD000000E100E0C00DFF1F2A
:100A4000700EFF1FCC0DFF1FD40DFF1FDC0DFF1F0D
:100A50000000E04000003040FC0DFF1F00409F40C0
:100A600000806640720EFF1FE80DFF1FE40DFF1FA0
:100A70001C0EFF1F61180000740EFF1FEC0DFF1FFE
:100A8000F40DFF1F04F7FFFFF00DFF1FF80DFF1F10
:100A90000000A0C00000C84200803B450100003FAC
:100AA000730EFF1F0000A040F8B5002600234FF48E
:100AB0007A720421002001F02DFF00234FF47A7296
:100AC0000521002001F026FF00234FF47A72002157
:100AD000012001F01FFF00234FF47A720121012051
:100AE00001F018FF00220121602002F05FF80120D0
:100AF000DFF8641D0870DFF8641D472001F073FD06
:100B0000052001F01EF8DFF8680D007800282FD1CD
:100B1000DFF85C0D4078DFF8581D097851EA0020B5
:100B200000B201F031F80022DFF8483D01F044F84E
:100B30000022DFF8443D01F06BF901F03BFADFF8E9
:100B40003C1D0860DFF8340D0068DFF8341D01F04B
:100B500083FD0AD2DFF8240D0068DFF8281D01F0BC
:100B60003BFE02D801200400CDE702200400CAE7C2
:100B700001F0F5FA01200400E4B2012C40F09B835F
:100B80000120DFF8041D0870DFF8FC0C0078002855
:100B900040F0A580DFF8E40C0068DFF8F01C01F0FD
:100BA0001BFE00F29880DFF8D40C0068DFF8E01C30
:100BB00001F052FD80F08F80DFF8B40C4078DFF850
:100BC000B01C097851EA002000B200F0DDFF0022DD
:100BD000DFF8A03C00F0F0FF0022DFF89C3C01F0C1
:100BE00017F901F0E7F9DFF8941C0860DFF8800CD2
:100BF0004079DFF87C1C097951EA002000B200F04E
:100C0000C3FF0022DFF86C3C00F0D6FF0022DFF8C3
:100C1000683C01F0FDF801F0CDF9DFF8601C886058
:100C200040F6B830DFF86C1C08600020DFF8681C64
:100C3000086040F6B830DFF8641C08600020DFF878
:100C4000601C0860DFF8540C006802F047F80700E9
:100C5000DFF8280C8168DFF84C0C01F051FD010031
:100C6000380001F00BFD01F0D5FCDFF8301C086006
:100C7000DFF8200C006802F031F80700DFF8FC0B09
:100C80008168DFF8200C01F03BFD0100380001F025
:100C9000CDFB01F0BFFCDFF8FC1B0860DFF8F40BB4
:100CA00002680421002001F0FDFEDFF8EC0B026871
:100CB0000521002001F0F6FEDFF8E00B02680021BC
:100CC000012001F0EFFEDFF8D80B026801210120BE
:100CD00001F0E8FE5EE70120DFF8AC1B0870DFF8EA
:100CE000A80B0078012840F0258100200600002094
:100CF0000500DFF8940B0078012840F01B81DFF835
:100D0000700B4078DFF8681B097851EA002000B2C8
:100D100000F03AFF0022DFF85C3B00F04DFF0022BC
:100D2000DFF8543B01F074F801F044F9DFF84C1B94
:100D30000860DFF83C0B4079DFF8341B097951EA91
:100D4000002000B200F020FF0022DFF8283B00F076
:100D500033FF0022DFF8203B01F05AF801F02AF9B6
:100D6000DFF8181B8860DFF8140B0168DFF8380B18
:100D700001F0C6FC0100DFF8340B01F07FFC01F04C
:100D800049FCDFF8101B08600020DFF80C1B08602E
:100D9000DFF8E80A0168DFF8100B01F0B1FC010090
:100DA000DFF8080B01F06AFC01F034FCDFF8EC1A04
:100DB00008600020DFF8E81A0860DFF8E00A006841
:100DC00001F08CFF0700DFF8B40A8168DFF8D40A6D
:100DD00001F096FC0100380001F028FB01F01AFC3C
:100DE000DFF8B81A0860DFF8AC0A006801F076FF97
:100DF0000700DFF8880A8168DFF8A80A01F080FCA4
:100E00000100380001F03AFC01F004FCDFF8841A1C
:100E10000860DFF8800A006841F64D51884204DB23
:100E200041F64C50DFF86C1A0860DFF8700A006871
:100E300041F64D51884204DB41F64C50DFF85C1A14
:100E40000860DFF8500A0068002803D50020DFF8AA
:100E5000441A0860DFF8440A0068002803D500201F
:100E6000DFF8381A0860DFF82C0A02680421002035
:100E700001F018FEDFF8200A02680521002001F0C9
:100E800011FEDFF8180A02680021012001F00AFEB5
:100E9000DFF80C0A02680121012001F003FEDFF8EF
:100EA000DC090068DFF8E41901F096FC3FF621AF99
:100EB000DFF8C8090068DFF8D81901F0CDFBBFF4EE
:100EC00018AFEDB2002D7FF414AFDFF8A40940781D
:100ED000DFF89C19097851EA002000B200F054FEB6
:100EE0000022DFF8903900F067FE0022DFF8883931
:100EF00000F08EFF01F05EF8DFF880190860DFF87F
:100F000070094079DFF86819097951EA002000B2C8
:100F100000F03AFE0022DFF85C3900F04DFE0022BE
:100F2000DFF8543900F074FF01F044F8DFF84C1991
:100F30008860CAE7DFF850090078022840F0DE80B8
:100F4000DFF838090068DFF8681901F045FC00F2A5
:100F5000D180DFF81C094078DFF81419097851EACC
:100F6000002000B200F010FE0022DFF8083900F087
:100F700023FE0022DFF8003900F04AFF01F01AF8E2
:100F8000DFF8F8180860DFF8E8084079DFF8E018C3
:100F9000097951EA002000B200F0F6FD0022DFF8E6
:100FA000D43800F009FE0022DFF8CC3800F030FF22
:100FB00001F000F8DFF8C4188860DFF8C0080168A5
:100FC000DFF8E40801F09CFB0100DFF8E80801F01D
:100FD00055FB01F01FFBDFF8BC1808600020DFF8AC
:100FE000B8180860DFF894080168DFF8C80801F055
:100FF00045FB0100DFF8C00801F040FB01F00AFBEF
:10100000DFF8981808600020DFF894180860DFF80F
:101010008C08006801F062FE0700DFF86008816854
:10102000DFF8800801F06CFB0100380001F0FEF9E8
:1010300001F0F0FADFF864180860DFF8580800687B
:1010400001F04CFE0700DFF834088168DFF854082F
:1010500001F056FB0100380001F010FB01F0DAFA54
:10106000DFF830180860DFF82C08006841F64D51B1
:10107000884204DB41F64C50DFF818180860DFF8AE
:101080001C08006841F64D51884204DB41F64C5083
:10109000DFF808180860DFF8FC070068002803D5AF
:1010A0000020DFF8F0170860DFF8F007006800287C
:1010B00003D50020DFF8E4170860DFF8D8070268DE
:1010C0000421002001F0EEFCDFF8CC0702680521C6
:1010D000002001F0E7FCDFF8C407026800210120CE
:1010E00001F0E0FCDFF8B80702680121012001F0FF
:1010F000D9FC25E70320DFF890170870DFF8880790
:101100000078032840F0A683DFF870070068DFF856
:10111000AC1701F0A1FA80F0B980DFF854074078ED
:10112000DFF84C17097851EA002000B200F02CFDDE
:101130000022DFF8403700F03FFD0022DFF83837AB
:1011400000F066FE00F036FFDFF830170860DFF8C9
:1011500020074079DFF81817097951EA002000B21A
:1011600000F012FD0022DFF80C3700F025FD002210
:10117000DFF8043700F04CFE00F01CFFDFF8FC162F
:1011800088600020DFF80C17086041F65830DFF85F
:10119000081708600020DFF80417086041F658308F
:1011A000DFF8FC160860DFF8F806006801F096FD2D
:1011B0000700DFF8C8068168DFF8E80601F0A0FA4A
:1011C0000100380001F05AFA01F024FADFF8D016D5
:1011D0000860DFF8C406006801F080FD0700DFF852
:1011E0009C068168DFF8BC0601F08AFA010038002D
:1011F00001F01CF901F00EFADFF89C160860DFF828
:10120000A006006841F64D51884204DB41F64C507F
:10121000DFF88C160860DFF88006006841F64D5153
:10122000884204DB41F64C50DFF86C160860DFF8AA
:1012300070060068002803D50020DFF864160860F7
:10124000DFF854060068002803D50020DFF84816B0
:101250000860DFF8400602680421002001F022FC4B
:10126000DFF8340602680521002001F01BFCDFF8DE
:101270002C0602680021012001F014FCDFF8200692
:1012800002680121012001F00DFC3DE7002204214C
:10129000002001F007FC00220521002001F002FCE3
:1012A00000220021012001F0FDFB0022012101208C
:1012B00001F0F8FBCEE20120DFF8CC150870DFF872
:1012C000C8050078012840F0568100200500DFF8AD
:1012D000B8050078012840F04E81DFF89405407889
:1012E000DFF88C15097851EA002000B200F04CFCC0
:1012F0000022DFF8803500F05FFC0022DFF878354F
:1013000000F086FD00F056FEDFF870150860DFF88B
:1013100060054079DFF85815097951EA002000B2DC
:1013200000F032FC0022DFF84C3500F045FC0022D2
:10133000DFF8443500F06CFD00F03CFEDFF83C15B2
:101340008860DFF838050168DFF85C0501F0D8F93E
:101350000100DFF8500501F091F901F05BF9DFF8C9
:10136000341508600020DFF830150860DFF80C0540
:101370000168DFF8340501F0C3F901F04BF9DFF83B
:101380001C1508600020DFF818150860DFF80C0550
:10139000006801F0A3FC0700DFF8E0048168DFF8D3
:1013A000040501F0ADF90100380001F03FF801F04B
:1013B00031F9DFF8E8140860DFF8D804006801F0BC
:1013C0008DFC0700DFF8B4048168DFF8D80401F071
:1013D00097F90100380001F051F901F01BF9DFF82D
:1013E000B4140860DFF8AC04006841F64D5188423F
:1013F00004DB41F64C50DFF89C140860DFF89C04D5
:10140000006841F64D51884204DB41F64C50DFF84C
:101410008C140860DFF87C040068002803D50020E5
:10142000DFF870140860DFF874040068002803D542
:101430000020DFF868140860DFF85804026804210F
:10144000002001F02FFBDFF8500402680521002086
:1014500001F028FBDFF8440402680021012001F0BC
:1014600021FBDFF83C0402680121012001F01AFB96
:10147000DFF808040068DFF8141401F0ADF93FF656
:1014800026AFDFF8F8030068DFF8041401F0E4F891
:10149000BFF41DAFDFF8D8034078DFF8D413097824
:1014A00051EA002000B200F06FFB0022DFF8C433E5
:1014B00000F082FB0022DFF8C03300F0A9FC00F04E
:1014C00079FDDFF8B8130860DFF8A4034079DFF88E
:1014D000A013097951EA002000B200F055FB002268
:1014E000DFF8903300F068FB0022DFF88C3300F067
:1014F0008FFC00F05FFDDFF884138860DFF87C0369
:101500000168DFF8BC0301F0FBF801F083F8DFF8B5
:10151000841308600020DFF880130860DFF85C03A4
:101520000168DFF89C0301F0EBF801F073F8DFF8D5
:101530006C1308600020DFF868130860DFF85403BC
:1015400002680421002001F0ADFADFF84C030268C4
:101550000521002001F0A6FADFF84003026800210F
:10156000012001F09FFADFF8380302680121012011
:1015700001F098FA8EE7C4480078022840F0B38062
:10158000BE480068CA4901F027F900F2A980B848AE
:101590004078B749097851EA002000B200F0F4FA27
:1015A0000022B44B00F008FB0022B34B00F030FCEB
:1015B00000F000FDB1490860AD484079AC490979B7
:1015C00051EA002000B200F0DFFA0022A94B00F03F
:1015D000F3FA0022A84B00F01BFC00F0EBFCA7493B
:1015E0008860A6480168B04801F08AF80100B14857
:1015F00001F044F801F00EF8A64908600020A64961
:1016000008609E480168AB4801F038F80100AA481C
:1016100001F034F800F0FEFFA04908600020A04966
:1016200008609E48006801F059FB070093488168F4
:101630009C4801F065F80100380000F0F7FE00F06A
:10164000E9FF964908609348006801F047FB0700EE
:101650008A488168934801F053F80100380001F08E
:101660000DF800F0D7FF8B4908608A48006841F602
:101670004D51884203DB41F64C508649086087484B
:10168000006841F64D51884203DB41F64C508349D6
:10169000086080480068002802D500207D49086065
:1016A0007E480068002802D500207C4908607948FF
:1016B00002680421002001F0F5F97748026805214D
:1016C000002001F0EFF9754802680021012001F0C7
:1016D000E9F9734802680121012001F0E3F94FE7BD
:1016E00003206949087068480078032840F0B280F8
:1016F00062480068714900F0AFFF80F097805C4855
:1017000040785B49097851EA002000B200F03CFAC9
:101710000022584B00F050FA0022574B00F078FBA3
:1017200000F048FC55490860514840795049097912
:1017300051EA002000B200F027FA00224D4B00F0E1
:101740003BFA00224C4B00F063FB00F033FC4B49AA
:10175000886000204F49086041F658304E490860C3
:1017600000204E49086041F658304D4908604C4809
:10177000006801F0B3FA070040488168494800F06A
:10178000BFFF0100380000F079FF00F043FF44493B
:1017900008604148006801F0A1FA070037488168F5
:1017A000404800F0ADFF0100380000F03FFE00F0BF
:1017B00031FF394908603A48006841F64D51884286
:1017C00003DB41F64C50364908603348006841F667
:1017D0004D51884203DB41F64C502F490860304898
:1017E0000068002802D500202D4908602A480068BA
:1017F000002802D5002028490860264802680421F4
:10180000002001F04FF9244802680521002001F072
:1018100049F9224802680021012001F043F92048DB
:1018200002680121012001F03DF961E70022042155
:10183000002001F037F900220521002001F032F9E3
:1018400000220021012001F02DF9002201210120B8
:1018500001F028F9F1BD0000720EFF1F2F040000F7
:1018600080B5012017490870002000F089FE01BDF5
:10187000DC0DFF1F0000E04000806640FC0DFF1FF4
:101880000000A040FFFF9FC0710EFF1F0000A0C01E
:101890000100A040EC0DFF1FF00DFF1FF40DFF1F16
:1018A000F80DFF1F0000FA430000AF4300007A4428
:1018B000FFFF1FC100C0DA4500401C450000204169
:1018C0000000C843720EFF1F012110F01F0291405B
:1018D000DFF8982240B2430942F8231070472DE9FF
:1018E000F84304000D0064B2002C08D0022C2CD068
:1018F00018D3042C4FD03BD3052C5FD071E0DFF818
:101900007002006850F48060DFF8641208604FF4E1
:101910004071662001F0FCF94FF44071672001F03E
:10192000F7F95EE0DFF84802006850F40060DFF885
:10193000401208604FF44071432001F0E9F94FF480
:101940004071442001F0E4F94BE0DFF82402006824
:1019500050F48050DFF8181208604FF44071632093
:1019600001F0D6F94FF44071622001F0D1F938E06E
:10197000DFF8FC01006850F40050DFF8F411086053
:101980004FF44071502001F0C3F94FF440715120E1
:1019900001F0BEF925E0DFF8DC01006850F480605A
:1019A000DFF8D01108604FF440714E2001F0B0F91B
:1019B0004FF440714F2001F0ABF912E0DFF8B401B1
:1019C000006850F40060DFF8AC1108604FF440711B
:1019D000892001F09DF94FF44071882001F098F9B9
:1019E000FFE7DFF8940164B250F82400C07810F0EB
:1019F000F300DFF8841164B251F82410C870DFF8E6
:101A0000780164B250F824008078DFF86C1164B279
:101A100051F82410887064B2002C02D064B2012CFA
:101A200007D1DFF8580100684FF47A7148438146C6
:101A300006E0DFF84C0100684FF47A7148438146B4
:101A40002801B9FBF0F00600B6B2B6F5005F02DB84
:101A500041F6FF700600B9FBF5F0B6B2B0EB061028
:101A60000700BFB2202F03DBDC21464801F0BDF99F
:101A7000414864B250F82400007810F0E00080463D
:101A8000C6F3042050EA08003B4964B251F8241020
:101A90000870394864B250F824004670364864B281
:101AA00050F82400807A10F0E000804617F01F0004
:101AB00050EA0800304964B251F8241088722E4868
:101AC00064B250F82400007C50F088002A4964B2C7
:101AD00051F824100874284864B250F82400C078E3
:101AE00050F00C00244964B251F82410C870BDE8CD
:101AF000F183214A40B252F8202012799206F8D59B
:101B00001D4A40B252F8202092F907200A7070470F
:101B1000194A40B252F8202012791206F8D5164A16
:101B200040B252F82020D17170470100124849B2EA
:101B300050F82100807D002801D0012000E0002025
:101B4000704710B504000C4864B250F82400C07807
:101B500050F02000084964B251F82410C87064B2F3
:101B600060002D3040B2FFF7AFFE10BD00E100E095
:101B70003480044028800440940BFF1F140EFF1F84
:101B80001C0EFF1FA4540000010040F10980F44620
:101B9000404200F005F851F000416047010000BFED
:101BA00009D0B0FA80F18840C91CC1F584610905EB
:101BB00001EBD021400570472DE9F04140F2FF755F
:101BC00081EA030C0CF0004C15EA11541DBF15EA14
:101BD0001357AC42AF42E9E0BC41C1F31301C3F378
:101BE0001303801A994143F4801304D2641E400009
:101BF000494180185941C90241EA5051B1FBF3F6FD
:101C000003FB1611A2FB0675D7EBC020A94102D237
:101C1000761E80185941C90241EA5051B1FBF3FECA
:101C200003FB1E11A2FB0E75D7EBC020A94103D206
:101C3000AEF1010E80185941890241EA90517605B2
:101C400046EA8E2EB1FBF3F603FB1611A2FB0675D6
:101C5000D7EB8020A94102D2761E80185941C902D3
:101C600041EA50514EEA060EB1FBF3F603FB1611A2
:101C7000A2FB0675D7EBC020A94102D2761E8018C0
:101C80005941C90241EA5051B1FBF3F703FB171167
:101C9000A2FB0735D3EBC020A94167F100070CBFB9
:101CA000004247F0010766F3D5274FEA1E31B80816
:101CB00014F5806414DDBD0775F1004250EB0E5041
:101CC00051EB045111F5801F5CBF41EA0C01BDE8E6
:101CD000F0814CF07F6141F0E0410020BDE8F081EF
:101CE000BD076D0840EA0E5041F48011D4F10104A3
:101CF000B4F120060ADAC4F120060200E04001FA3D
:101D000006F3E1401843B24015430EE0342C14DCD6
:101D1000C6F1200445EA40056D0820FA06F2154395
:101D200021FA06F0A1400D43002175F1004250F167
:101D3000000051EB0C01BDE8F08100205FEA0C01CE
:101D4000BDE8F081CFB992185B41B3FA83F704BFC5
:101D5000B2FA82F6BF190B3FB7F120062FBF02FA85
:101D600006F3BB40C7F1200622FA06F638BF33431C
:101D7000BA401CB1E419641E2FE77F4231F00041E4
:101D8000B1FA81F404BFB0FA80F6A4190B3CB4F1A7
:101D900020062FBF00FA06F1A140C4F1200620FA68
:101DA00006F638BF3143A0403C1B16E7AC421ABFD1
:101DB00005EA1357AF4214E050EA41061CBF52EA4D
:101DC0004306BFE750EA4107304661461CBF41EA7F
:101DD0000551BDE8F08152EA430C08BFC143BDE89C
:101DE000F08100204FF4001616EB410F98BF16EB60
:101DF000430F08BF16EB410F24BFC14305E016EBAC
:101E0000430F0CBF61464CEA0551BDE8F08100006C
:101E1000B0B581EA030C0CF0004C40F2FF7515EAF6
:101E200011541DBF15EA1357AC42AF4239E0E41913
:101E300023EA455343F48013C90241F0004141EACB
:101E4000505EC7021100A7FB020200284FF00000FD
:101E5000EEFB01204FF00001E3FB072118BF42F029
:101E60000102401800214941E3FB0E01A4F5806402
:101E70000F0302D252004041494154F101046CDD8C
:101E8000470872F1004250F1000051EB0451A1F5F6
:101E900080115CBF41EA0C01B0BD4CEA0551002045
:101EA000B0BD05EA1357AC4214BFAF4241E050EA5F
:101EB000410E1CBF52EA430E02E061460020B0BD55
:101EC00024423C441BD15FEA070EF6D0090302BF4F
:101ED00001460020AEF1140EB1FA81F7AEEB070413
:101EE00001FA07FE0C37C7F1200100FA07F7C840D6
:101EF0004EEA000E23EA455343F48013A2E733F081
:101F00000043B3FA83F704BFB2FA82FE77440B3F73
:101F1000E41BB7F1200E2FBF02FA0EF3BB40C7F14E
:101F2000200E22FA0EFE38BF43EA0E03BA40641CAC
:101F300082E750EA410E14BF52EA430E6FF00001EF
:101F40004FF4001717EB430F8ABF194617EB410FE9
:101F5000B5E74CEA05510020B0BDD4F10104B4F15D
:101F600020070FDAC4F12007520828BF42F001020F
:101F700010FA07F501FA07F7E1BF2A43E0403843BA
:101F8000E1400FE0352C98DCC7F1200452EA400212
:101F900020FA07F218BF42F0010231FA07F0A1401F
:101FA0000A43002172F1004250F1000051EB0C0194
:101FB000B0BD00004FEAF17CBCF1E04C2CBFBCF599
:101FC000001F11E05FEA4C0C34BFBCF17F5F2EE0D4
:101FD0005FEA9C0C4FEA0C1C4FEA3C0CC10071F10B
:101FE00000414CEB50707047C90241EA5051C002A9
:101FF00018BF41F0010141F000414FEA6C50C0F1BF
:102000000900212810D240EACC7CCCF1200C11FA36
:102010000CF070F10040CCF1200C21FA0CF00CF027
:10202000004C40EB0C0070474FEACC707047490001
:1020300011F5001F04D84FEACC10FF30C0057047DF
:10204000C817704708210122DFF8A4331A6000BFC7
:102050000022DFF8A0331A6000BF0A00511ED2B27E
:10206000002A15D0020604D50122DFF88C331A604D
:1020700003E00022DFF880331A600122DFF87433B6
:102080001A6000BF0022DFF86C331A604000E4E7FA
:102090007047000008210022DFF854331A60002244
:1020A000DFF850331A600A00511ED2B2002A15D050
:1020B000020604D50122DFF840331A6003E0002253
:1020C000DFF834331A600122DFF828331A6000BFCA
:1020D0000022DFF820331A604000E4E7704738B58B
:1020E00004000D00B5F15000C0B2FFF7D3FFE4B219
:1020F000200950F01000C0B2FFF7CCFF14F00F0021
:10210000FFF7C8FF31BD70B5040000200500EDB237
:10211000082D17DAB5F15000C0B2FFF7BBFF012060
:10212000FFF7B8FF1020FFF7B5FF00200600F6B25A
:10213000802E05DA2000C0B2FFF784FF761CF6E798
:102140006D1CE4E770BD002808D043F22642110060
:102150000A00511E002AFBD1401EF4E7704780B5EB
:10216000012201214F2000F021FD012201214B20FD
:1021700000F01CFD01220121512000F017FD012279
:1021800001214D2000F012FD0020DFF870120860E0
:102190003220FFF7D8FF0120DFF860120860AE2080
:1021A000FFF778FF0020FFF775FF1020FFF772FFA1
:1021B0004020FFF76FFF8120FFF76CFFCF20FFF774
:1021C00069FFA120FFF766FFC820FFF763FFA62085
:1021D000FFF760FFA820FFF75DFF3F20FFF75AFFE2
:1021E000D320FFF757FF0020FFF754FFD520FFF75C
:1021F00051FF8020FFF74EFFD920FFF74BFFF12062
:10220000FFF748FFDA20FFF745FF1220FFF742FFF4
:10221000DB20FFF73FFF4020FFF73CFF2020FFF7C8
:1022200039FF0220FFF736FF8D20FFF733FF142020
:10223000FFF730FFA420FFF72DFFA620FFF72AFFAE
:10224000AF20FFF727FF0020FFF75DFF00210020F0
:10225000FFF745FF01BD2DE9F84304000D0016000E
:1022600000275FF000085FF000095FFA89F919F8AC
:10227000060000282BD05FFA89F919F806002038EB
:102280000700E4B27F2C02DB002004006D1C290053
:10229000C9B22000C0B2FFF722FF002080465FFADB
:1022A00088F8B8F1060F0EDADFF85401FFB2062104
:1022B00001FB07005FFA88F818F80000FFF7C2FE7C
:1022C00018F10108EBE7A41D19F10109CDE7BDE8FC
:1022D000F1832DE9F04784B007000C00A2460DF110
:1022E00000093800002100F0B7F906D22D208AF845
:1022F00000001AF1010A97F00047380000F008FECC
:102300008046404600F0F4FC0100380000F08EF8F2
:102310003C4900F0F5F900F0FBFD0600B8F1000FB4
:1023200005D130208AF800001AF1010A12E0B8F154
:10233000000F0FD00A20B8FBF0F100FB1180050060
:102340000A20B8FBF0F815F1300089F8000019F107
:102350000109ECE700A8484508D2B9F1010999F84C
:1023600000008AF800001AF1010AF3E72E208AF82B
:1023700000001AF1010A002E14D130208AF8000062
:102380001AF1010A30208AF800001AF1010A3020FF
:102390008AF800001AF1010A30208AF800001AF1C8
:1023A000010A11E0002E0FD00A20B6FBF0F100FB6D
:1023B000116005000A20B6FBF0F615F1300089F82F
:1023C000000019F10109EDE700A8484508D2B9F16C
:1023D000010999F800008AF800001AF1010AF3E7F0
:1023E00000208AF80000200004B0BDE8F08700005B
:1023F0004410FE432C10FE433410FE433C10FE43B9
:10240000E84D000000401C4670B58AB004000D0085
:10241000160000A93000FFF75CFF02002900C9B2D6
:102420002000C0B2FFF717FF0AB070BD90EA010F9D
:1024300044BF81F0004100F029B900BF431A4FF0BA
:1024400000423EBF5340C01AC91800BFD3095FEA1B
:10245000D05C13EB400F34BFB3EB410F40E07CEB9B
:10246000D1530CD342EA012122D8D1EB402009D329
:10247000400A28BF5FEA500140EBCC507047401A39
:1024800015D04002B0FA80F2521C9040400A4FEA48
:102490003C23B3EB026384BF00EB730007E040F41E
:1024A00000001A16DB07C2F10102D0401843704742
:1024B000182BFCDC31FA03F202FA03F3591A38BF85
:1024C00042F00102D2EB40203CBF4000ACF1010CD5
:1024D0005FEACC5CC20572F100414CEB50207047C2
:1024E00013EB400F0FD24B0009D0ACEBD153022BB2
:1024F00003DB4902172BDDDD70479143401A43008F
:10250000D5D10020704713EB410FD0D36FF00000FE
:102510007047000038B504000D00002D03D12221C2
:10252000244800F062FC2448006850F4000022496E
:102530000860002021490860681E214964B2220118
:1025400050501F4864B210EB0410C06850F00100F6
:102550001B4964B211EB0411C860194864B210EB56
:102560000410806840084000154964B211EB041162
:1025700088600320124964B211EB0411886031BDF8
:102580000F4940B211EB0011C96851F001010C4A2A
:1025900040B212EB0012D160094940B211EB0011B8
:1025A000896849084900064A40B212EB001291605E
:1025B00070470000785400003C80044000700340E5
:1025C0000071034010B504004FF4007094FBF0F16B
:1025D00001FB1041002903D01E210B4800F005FC2F
:1025E0000A48046010BD38B504000D0007480068B3
:1025F0000749884203D03021034800F0F6FB044825
:1026000064B240F8245031BDD054000008ED00E021
:102610000000FF1F4100090E7F3915D4D1F11F01C1
:1026200014D4400007D2C00140F00040C84048BF69
:102630006FF000407047C00140F00040C8404CBF00
:102640004FF00040404270470020704700424FF07A
:10265000004058BFC04370474FF0807C1CEB400FD8
:1026600094BF1CEB410F05E040EA010C5FEA4C0C03
:1026700001D28842704718BF8142704790EA010F2B
:1026800044BF81F00041FFF7D9BE00BF421A3CBFF2
:10269000801A89184FF0004CC0F3C752FF2A24D08B
:1026A000C1F3C75313B3D21AD2F1190327DD4CEA91
:1026B00001214CFA03F321EA0303D140C20D4CEA95
:1026C0000020401834BF20EA0C004CEA5000D2052C
:1026D00053EA006373EB0C0C52EB1020420012F132
:1026E000807F38BF7047C00DC0057047490212BFD8
:1026F0009A4200EB5120F8E7D2F11703D9D5704781
:10270000FF2212EAD05C1DBF12EAD15394459342D6
:102710002BE09C44D30780EA01021A4043EA0020E0
:1027200043EA0121A1FB0030410038BF40007CF1A9
:102730007F010BDBFE294ADA5B0842EAC15153EA0A
:10274000006373F1004C51EB10207047D1F1080C7D
:10275000DCF120012FDB5B0810FA01F10B4373F170
:10276000004120FA0CF05041704794451CBF02EA2A
:10277000D153934280EA010202F000421DD0400092
:1027800019D0490017D05BB9634514D00902B1FADA
:1027900081F39940BCEB030CC00140F00040C1E75D
:1027A0000002B0FA80FC10FA0CF0B3EB0C0CC9017B
:1027B00041F00041B6E71000704740000AD04900E0
:1027C00008D010F1807F94BF11F1807F02E042F0C9
:1027D000FF407047D04370474FF0807C1CEB400FA8
:1027E00094BF1CEB410F05E040EA010C5FEA4C0C82
:1027F00001D28142704718BF8842704738B5040043
:102800000D0064B2002C03D0022C66D049D380E0C6
:10281000DFF88003006850F08070DFF878130860FC
:102820006DB2002D0BD0022D15D00ED3042D1ED06D
:1028300017D3062D27D020D3072D2AD02FE04FF411
:102840008061412000F064FA2AE04FF440710420D6
:1028500000F05EFA24E04FF44071052000F058FAD1
:102860001EE04FF44071062000F052FA18E04FF4D9
:102870008061642000F04CFA12E04FF48061652022
:1028800000F046FA0CE04FF48061662000F040FA58
:1028900006E04FF48061672000F03AFA00E038E08B
:1028A00037E0DFF8F002006850F00070DFF8E41263
:1028B00008606DB2002D02D0012D06D00BE04FF460
:1028C0004071082000F024FA06E04FF4407109201E
:1028D00000F01EFA00E01CE01BE0DFF8BC0200681C
:1028E00050F08070DFF8B01208606DB2002D02D099
:1028F000012D06D00BE04FF440710A2000F008FAD9
:1029000006E04FF440710B2000F002FA00E000E016
:10291000FFE731BD2DE9F84F04000D0016001F0040
:1029200064B2002C0ED064B2012C02D064B2022C2E
:1029300002D16DB2022D05DB40F28511DFF85C0299
:1029400000F053FA290049B2200040B2FFF756FFC9
:10295000DFF84C0200684FF47A71484380465FEA22
:102960001840B0FBF6F08146002082461FFA89F934
:10297000484650FA0AF0012802DB1AF1010AF5E78D
:102980005FFA8AFABAF1080F05DB4FF4D071DFF86D
:102990000C0200F02AFA404630FA0AF0B0FBF6F0DA
:1029A00081461FFA89F9DFF8FC0164B240F82490EF
:1029B00064B2002C03D0022C19D00CD323E01FFAF0
:1029C00089F919F1010000FB07F042F21071B0FB28
:1029D000F1F0834617E01FFA89F919F1010000FBB5
:1029E00007F042F21071B0FBF1F083460BE01FFAE2
:1029F00089F919F1010000FB07F042F21071B0FBF8
:102A0000F1F08346FFE7DFF8A00164B250F824003C
:102A10006DB210EBC500DFF8901164B251F82410CC
:102A20006DB211EBC501C96831F00401C160DFF876
:102A3000780164B250F824006DB210EBC500282173
:102A4000C1605FFA8AFA1AF0070050F00800DFF858
:102A5000581164B251F8241008601FFA89F9DFF8A0
:102A6000480164B250F82400C0F808900020DFF854
:102A7000381164B251F82410C864DFF82C0164B234
:102A800050F824006DB210EBC5001FFA8BFBC0F8A4
:102A900010B00020DFF8101164B251F82410486023
:102AA000BDE8F18F2DE9F04104000D0016005FF044
:102AB000000864B2002C0ED064B2012C02D064B2C3
:102AC000022C02D16DB2022D05DB4FF4F371DFF859
:102AD000CC0000F08AF964B2002C03D0022C17D08D
:102AE0000BD320E042F21170864205D34FF4F67109
:102AF000DFF8A80000F079F915E042F21170864283
:102B000005D34FF4F871DFF8940000F06EF90AE095
:102B100042F21170864205D34FF4FA71DFF87C005F
:102B200000F063F9FFE7DFF87C0064B250F824009E
:102B3000804664B2002C03D0022C15D00AD31DE0CD
:102B400018F1010000FB06F042F21071B0FBF1F049
:102B5000070013E018F1010000FB06F042F21071CB
:102B6000B0FBF1F0070009E018F1010000FB06F0EE
:102B700042F21071B0FBF1F00700FFE7DFF8280028
:102B800064B250F824006DB210EBC5000761BDE8D7
:102B9000F08100003C80044030800440205400005C
:102BA0001C0EFF1F080EFF1F180BFF1F70B504003F
:102BB0000D0016004FF480712000C0B200F0A8F89C
:102BC0006DB2002D11D14348E4B2611150F82100DB
:102BD0004049E4B2621151F822104969012214F00F
:102BE0001F039A409143416136E03A48E4B26111D3
:102BF00050F821003749E4B2621151F822104969B6
:102C0000012214F01F039A4011434161F6B2002ED5
:102C100011D13048E4B2611150F82100006801215F
:102C200014F01F02914088432A49E4B2621151F81E
:102C30002210086010E02748E4B2611150F821002A
:102C40000068012114F01F02914008432149E4B2B9
:102C5000621151F82210086070BD10B504001D48C3
:102C6000E4B2611150F82100406914F01F01020024
:102C7000CA40D00703D47B21174800F0B6F81548A6
:102C8000E4B2611150F82100012114F01F029140BB
:102C9000C16010BD10B504000E48E4B2611150F8D7
:102CA0002100406914F01F010200CA40D00703D57B
:102CB0008C21094800F099F80648E4B2611150F8F7
:102CC0002100006914F01F010200CA4012F0010047
:102CD00010BD0000240BFF1F4C540000002840F1E1
:102CE0000980F446404200F005F850F0004060478B
:102CF000002800BF0AD0B0FA80F18840D1F19D01D0
:102D0000C905020672F1004241EB10207047000035
:102D100010B4294A12684FF40073C0B24409A340AA
:102D20001A43254B1A60254AC0B2431152F823209A
:102D3000012310F01F04A340C2F8A0301F4AC0B204
:102D4000431152F82320C0B210F01F0342F82310A1
:102D500010BC704710B4184A12684FF40073C0B228
:102D60004409A3401A43144B1A60144AC0B24311D9
:102D700052F82320012310F01F04A340C2F8A03012
:102D800031F4E0610D4AC0B2431152F82320C0B2C1
:102D900010F01F0352F8232012F4E0621143074A97
:102DA000C0B2431152F82320C0B210F01F0342F802
:102DB000231010BC7047000038800440800BFF1FB8
:102DC000DFF800F0290CFF1FDFF800F0590CFF1F9F
:102DD000BFF34F8F4648006810F4E0604549084350
:102DE00043490860BFF34F8FFEE738B504000D007C
:102DF000002000F09FF82A0021003F4800F0D2F8A0
:102E0000002000F0B4F84FF47A7000F0F8F8F2E720
:102E100038B504000D00210049B20520FEF778FE08
:102E2000200032BD10B50024042000F0FFF804207B
:102E300000F032F9002841D1002000F07BF8042096
:102E400000F02AF9012801D101200400002000F03F
:102E50008EF82A4800F0A6F84FF4FA7000F0CFF888
:102E6000E4B2012CEBD1042000F016F90028E6D1E1
:102E7000042000F011F9002806D1002000F077F8B6
:102E8000642000F0BCF8F3E7042000F005F9012805
:102E900006D1002000F06BF8322000F0B0F8F3E724
:102EA000174800F07FF8FFF78BFF642000F0A7F8C9
:102EB0000020FFF789FFFFF78BFFC0E710BD10B5BB
:102EC00010480468012000F035F8012000F04FF8A8
:102ED0000D48E4B20F2101FB0402E4B221000B48CB
:102EE00000F060F84FF47A7000F089F8EDE7000028
:102EF0000CED00E00400FA0520550000D455000058
:102F00005455000004ED00E01004FF1F885300003A
:102F100040000DD2010E7F390AD4D1F11F0104D433
:102F2000C00140F00040C84070477FF0000070478B
:102F30000020704710B5040064B2042C07DA0122A7
:102F40000121174864B2205CFFF730FE0EE0042038
:102F500004002000441E40B2002807D001220121B5
:102F60000F4864B2205CFFF721FEF2E710BD10B5F8
:102F7000040064B2042C05DA094864B2205CFFF74F
:102F80006CFE0CE0042004002000441E40B2002827
:102F900005D0034864B2205CFFF75FFEF4E710BD84
:102FA000B40BFF1F0EB400B582B003A90091024616
:102FB00000AB0121034878440A3000F085F806BCD4
:102FC0005DF810FBED25000010B50400002C15D0B5
:102FD000B4F1807F03D329210F48FFF706FF0020BB
:102FE0000E4908600E48046000200E490860052064
:102FF0000A49086009480068C003FBD510BD10B538
:1030000004002000441E002804D007480068FFF791
:10301000DBFFF6E710BD0000C453000010E000E045
:1030200014E000E018E000E0140EFF1F10B50400EB
:1030300064B2082C0DDA00220021224864B2205C20
:10304000FFF7B4FD03211F4864B2205CFFF782FE46
:1030500014E0082004002000441E40B200280DD0D7
:1030600000220021174864B2205CFFF79FFD032176
:10307000144864B2205CFFF76DFEECE710BD10B59C
:103080000400104864B2205CFFF704FE002801D160
:10309000002000E0012010BD10B50400200040B267
:1030A000FFF7EDFF00280AD10A20FFF7A8FF200054
:1030B00040B2FFF7E4FF002801D1002000E001202A
:1030C00010BD0000AC0BFF1F2DE9F04FA1B08046F2
:1030D000002017461D4602910B900DF1440A6FF037
:1030E00000490AE017F8011B0298C0470028029027
:1030F00000F0A5820B98401C0B90387808B90B980B
:103100009FE22528EED100200590069007900890B8
:1031100009900A9001E040F0010017F8011F2029F2
:10312000F9D023290DD02B2904D02D2906D0302900
:103130000AD00CE040F0020080B2EEE740F004005C
:10314000FAE740F00800F7E740F01000F4E72A291A
:103150000ED12968296051F8042B2960002A0D92AC
:1031600004D5514240F004000D9180B27F1C11E063
:1031700000210D9109E00D99494505D001EB81032E
:1031800002EB430130390D917F1C3A78A2F13001F6
:103190000A29F0D339782E2903D04FF0FF310C9152
:1031A0001DE017F8011F2A2907D1296829607F1C13
:1031B00051F8042B29600C9211E000210C9109E0D8
:1031C0000C99494505D001EB810302EB43013039ED
:1031D0000C917F1C3A78A2F130010A29F0D3ADF8A6
:1031E00038000FF6C020397800F06AFD08B117F8F2
:1031F000010B8DF83A009DF83A00682802BF397833
:103200006829622005D06C2804BF38786C2803D167
:1032100071208DF83A007F1C11A8049017F8014B1B
:10322000B4F1250023D02038022840F2BB801338A7
:1032300000F0E0800B3800F04A81401E00F023814E
:10324000401E022840F2AE80001F00F01C81401F8B
:1032500079D0401E00F0CE80401E24D0C01E0BD07E
:10326000801E00F0C780C01E00F0C48039E1252018
:103270008DF8440001203DE12868286050F8046B77
:10328000286003960C9C002C04D5304600F024FDE9
:10329000044606E022460021304600F039FD00B128
:1032A000841B069427E1296829603C2451F8040B0B
:1032B00029600021CDE9000111A80390DDE900019A
:1032C000049E11B908B90C9AB2B10206120FA0EB14
:1032D00002123032D2B2631E3A2AA8BF2732000946
:1032E00040EA017009099A5508BF00281C4603D01E
:1032F000039AA3199A42E8D3A0190390C4F13C01A0
:103300000C980691814209DA401A08904FF6EF7145
:10331000BDF838000840ADF83800ECE0002840F176
:10332000EA809DF8380000F01400102840F0E38097
:103330000D98059A801A089A801A441A012CC0F236
:10334000DA800894D7E09DF83A0062281AD06828FD
:1033500006D06A280CD06C281CD0712808D019E03F
:103360002868286050F8041B28600B980880C2E089
:103370002868286050F8042B28600B98C117C2E910
:103380000001B8E02868286050F8041B28600B98FA
:103390000870B0E02868286050F8041B28600B987B
:1033A0000860A8E02868C01D20F007022A60D2E962
:1033B000000108322A60CDE90001002902D50598F4
:1033C0002D210AE0BDF83800810702D505982B2190
:1033D00003E0C00705D50598202100F80A10401C1D
:1033E000059011A8059908180390214600A800F03F
:1033F000E5F980E09DF83A006C280DD0712818BFDF
:103400006A2809D12868C01D20F007022A60D2E985
:10341000000108322A6005E02968296051F8040B90
:1034200029600021CDE900019DF83A00682803D108
:10343000DDE9000180B20BE0622803D1DDE9000183
:10344000C0B205E0742818BF7A2804D1DDE9000174
:103450000021CDE900019DF8380000072ED5DDE9F7
:103460000001002908BF002828D044F02000782857
:1034700024D10598302100F80A10401C411C059108
:1034800000F80A401AE09DF83A00294600F0DCF8FE
:10349000CDE90001002902DA05982D210AE0BDF8E6
:1034A0003800810702D505982B2103E0C00705D518
:1034B0000598202100F80A10401C059011A80599D4
:1034C00008180390214600A800F0F5F813E0012049
:1034D00005902868286050F8041B28608DF8441077
:1034E00009E025208DF84400012005901CB18AF8E0
:1034F0000140022005900D980599401A0899401A3C
:103500000699401A0999401A0799401A0A99441ACB
:103510009DF83800400710D420208DF84000002688
:1035200009E0012310AA00A9404600F0A3FB0028EF
:1035300040F08580761CA642F3DB059E0DF1440B1E
:103540000AE01BF8011B0298C0470028029076D0C1
:103550000B98401C0B90761E002EF2D130208DF877
:1035600040004FF0000B089E09E0012310AA00A9BB
:10357000404600F07FFB002861D10BF1010BB34501
:10358000F3DB069EDDF80CB00AE01BF8011B029885
:10359000C0470028029052D00B98401C0B90761E1A
:1035A000002EF2D130208DF840004FF0000B099E24
:1035B00009E0012310AA00A9404600F05BFB0028A7
:1035C0003DD10BF1010BB345F3DB03980699079E40
:1035D00001EB000B09E01BF8011B0298C0470290A9
:1035E00068B30B98401C0B90761E002EF3D1302050
:1035F0008DF840004FF0000B0A9E08E0012310AA4E
:1036000000A9404600F036FBC8B90BF1010BB345E9
:10361000F4DB9DF8380040077FF56FAD20208DF872
:103620004000002600E0761CA642BFF666AD0123EE
:1036300010AA00A9404600F01DFB0028F3D04FF06F
:10364000FF3021B0BDE8F08F622826D068281DD059
:103650006A2808D06C2827D0712804D0742823D079
:103660007A280CD020E00868C01D20F00700086010
:10367000D0E90023083008601946104670470A68F0
:103680000A6052F8040B0A60002170470A680A6059
:1036900052F8040B0A6000B20BE00A680A6052F8A4
:1036A000040B0A6040B204E00A680A6052F8040B96
:1036B0000A60C11770472DE9FA4E05460A462F6980
:1036C0006F2A08BF082405D041F02000782814BFD5
:1036D0000A2410243C26D5E90001642A18BF692A6F
:1036E00081468A4605D1002903DAD9F100096AEB3F
:1036F0004A0ABAF1000F08BFB9F1000F0CD1286BCC
:1037000050B9082C36D195F83800000732D5302052
:103710003B2687F83B002DE0E317484651462246FA
:1037200000F022FBA4FB0023A9EB02023032D2B24C
:10373000A6F1010B3A2A5E4603DB9DF80030513BAF
:103740009A1881465FEA010A0BF8072008BFB9F111
:10375000000F03D0E868F1198842DDD3082C09D1A5
:1037600095F83800000705D5F05D302802D0761EA8
:103770003020F055C6F13C00A861F119E960296BD1
:10378000884208DA081A28624FF6EF71288F08403D
:103790002887BDE8F38E00290ED595F8381001F082
:1037A0001401102908D1696B6A69891A2A6A891A71
:1037B0000E1A012EA8BF2E62BDE8F38E2DE9F34F3D
:1037C0008BB0D0E90089006B002801AF48BF06200C
:1037D00005D404BF41F02000672802D101200B99D5
:1037E000086340F2FF720B984168C1F30A5090429F
:1037F00020D1080302BF0B98006800280AD10B995A
:10380000032088619DF8300061381A2858D30FF2E0
:10381000A84109E00B99032088619DF830006138C8
:103820001A284AD30FF288410B98C068032200F08F
:1038300013FB00E1012807DA0B9800F048FB012890
:1038400002DB00230026EDE00B9ADFF854B152684A
:1038500040F2FE3161F31E520B994A6040F2FE3194
:10386000461A404649460022002300F051FB38BF6B
:1038700089F0004936B247F297507043494990FBAE
:10388000F1F636B2C6F10707012F92461BDBF807A7
:1038900007D552465B4640464946FEF7B9FA804690
:1038A00089465046594652465B467F10FEF7B0FAAD
:1038B000002F82468B46EAD126E00FF2F031B3E7C3
:1038C0000FF2F031B0E77F420024374D12E0F807E5
:1038D00007D552465B4620462946FEF799FA04462C
:1038E0000D465046594652465B46FEF791FA7F1008
:1038F00082468B46002FEAD14046494622462B4657
:10390000FEF75AF9804689469DF830000B99DFF89A
:103910009CB0096B40F02005662D0CBF06F10A0033
:1039200006204718142FA8BF132730208DF8040055
:103930000DF10504012F3BDB4046494600F000FB3A
:10394000014604F1080204234FF00A0CB1FBFCFC11
:103950000CEB8C04A1EB4401303102F8011C0A216C
:10396000BCFBF1FE0EEB8E04ACEB440430345B1E6A
:10397000714602F8024DE7D1083F012F02F1080419
:10398000D8DBFEF70BF902460B464046494600F0ED
:10399000EDFA00225B46FEF73BFA80468946CBE70C
:1039A00000002440A08601000000F03F84D797412A
:1039B0000DF10500201A0DF1050702E0401E761EEC
:1039C0007F1C39783029F9D0662D02D136B2711CAE
:1039D00003E0652D0CBF012100210B9A126B8B189F
:1039E0001BB29842B8BF03461BB219001AD48142D9
:1039F00004DAC85D3528A8BF392000DA3020CA199A
:103A0000521E00E05B1E12F80159491E8542F9D092
:103A1000392802D1C85D401CC855002902D57F1E37
:103A20005B1C761C36B29DF830100B9800961BB2CA
:103A30003A4600F003F80DB0BDE8F08F2DE9F047ED
:103A400086B006468A4690461D4600F06CFB012D66
:103A5000406A376B90F8009002DA01250FF25C287B
:103A60004AF02000BDF93840662808BF641C13D016
:103A7000672840F0888014F1040F73DBBC4271DAD0
:103A800096F83800641C000702D4BD42B8BF2F4628
:103A900024B23F1B48BF002724B2F068B169012C53
:103AA00021DA4A1C30230B54012F03DA96F8381020
:103AB000090702D502F80090521CE742B8BF7C42C9
:103AC00024B2E7196142AF42B2617162B8BF3D46AC
:103AD000B3692DB2F5612A464146181800F0BCF9C9
:103AE000781BB062AFE00818A54216DA2A464146B4
:103AF00000F0B2F9B1696918601B012FB161706201
:103B000003DA96F83800000705D5F06801F8009050
:103B1000F069401CF061B76295E02246414600F032
:103B20009BF9B06920182D1B012F03DA96F8381085
:103B3000090703D5F16800F80190401CB0612DB26F
:103B4000AF42B8BF3D46F068B3692DB22A4604EBD8
:103B50000801181800F080F9B0692818B061781BC6
:103B6000706270E0BD4204DA96F83810090758BF59
:103B70002F467F1E48BF0027BAF1670F0CBF4FF0DA
:103B8000650A4FF0450AB169F06818F8013B0B541B
:103B90004A1C012F05DA96F83810090758BFB261A0
:103BA00015D502F80090531C012FB3610FDB6D1E79
:103BB0002DB2AF42B8BF3D462DB22A464146181835
:103BC00000F04AF9B0692818B061781B7062F0689B
:103BD000B1690918200081F800A004D42B20487096
:103BE00001F1020804E02D224A7001F1020864424A
:103BF000002502AF08E00A2200A800F0ADFA019803
:103C000007F8010B6D1C009C21B20129F3DA022D8B
:103C100006DA4AF02000652804BF302008F8010BBE
:103C20004DB9302008F8010B07E06D1E02A8285C92
:103C3000303008F8010B012DF7DAF068B169081887
:103C4000A8EB0000F06196F8380000F0140010288E
:103C50000DD17069B1690818716A0818F1690818FE
:103C6000B16A0818716B8842BCBF081A306206B08E
:103C7000BDE8F087F8B504460D4616461F460020FD
:103C800004E0E86A401CE8627F1E002047B116F895
:103C9000011BA868A0470028A860F2D14FF0FF30B0
:103CA000F2BD0000686A6C747A4C00006E616E00B0
:103CB0004E414E00696E6600494E460030000000DD
:103CC0000278C9B28A421AB11CBF10F8012FF9E775
:103CD00018BF00207047000000F10103810704D0E5
:103CE00010F8011B89B18107FAD10268B2F10131E4
:103CF000914311F0803F04BF50F8042FF6E710F80D
:103D0000011B11B110F8011BFBE7C01A704700003E
:103D1000C9B2830706D0521E22D310F8013B994244
:103D2000F7D11FE0083A13D302F1040241EA01215E
:103D300041EA014150F8043B121F21BF4B40A3F15F
:103D4000013C2CEA030C1CF0803FF3D0C9B2001FE9
:103D5000083210F8013B521E28BF91EA030FF8D831
:103D600018BF0120401E70471B4213D1094236D1B3
:103D70002AB18446B0FBF2F002FB10C2704700F09B
:103D8000F3B9FCD30022002370470B00020000218E
:103D900000207047904271EB030CF6D370B5B1FA76
:103DA00081F4B3FA83F52C1BA340C4F1200532FA49
:103DB00005F63343A2405FF00046E64002E05B08B0
:103DC0005FEA3202841A71EB030524BF20462946BC
:103DD0007641F4D302000B003000002170BD012AAF
:103DE000CFD970B5140C20D0B1FA81F4B2FA82F5B3
:103DF000C4F120046419B4F12006D6D3B2405FF0B8
:103E00000044F440002502E052085FEA3303C61A7A
:103E100071EB020E24BF3046714664416D41F3D30D
:103E200002000B002000290070BD0C46B1FBF2F12E
:103E300002FB11452D0445EA1045B5FBF2F402FBE7
:103E4000145580B240EA0545B5FBF2F002FB105272
:103E500040EA044070BD000062B38B0708D0521ED8
:103E600011F8013B00F8013B00F024808B07F6D1EC
:103E7000830740F0208000BF103A07D330B4B1E888
:103E80003810103AA0E83810F9D230BC530724BFDC
:103E9000B1E80810A0E8081044BF51F8043B40F80E
:103EA000043BD20724BF31F8022B20F8022B44BF79
:103EB0000B7803707047083A07D3B1E80810083A46
:103EC00040F8043B40F804CBF7D25307E4E730B4A2
:103ED000436803F0004201211B031B0B436004BF36
:103EE0000368002B08D10DE00368DD0F45EA4404A8
:103EF00044605B000360491E4468E302F4D5230379
:103F00001B0B436043681A434260084630BC70474D
:103F10004FF4001C1CEB410F94BF1CEB430F09E056
:103F200041EA030C50EA4C0C52EA0C0C03D29942C1
:103F300008BF9042704714BF8B4282427047000016
:103F4000400D40EAC120490080F00D8040F0004063
:103F5000490DA1F58061491C05D4D1F11F0154BF61
:103F6000C840C01770474FF000007047F0B44FF0E2
:103F7000004591EA030F44BF6B4000F0F7B800BF63
:103F8000841A71EB030604D26E40001BB141121972
:103F900073414FF4001C1CEB410F34BF7CEB430614
:103FA00084E00C0DA4EB1356362E7DDC012E43DC91
:103FB00045EAC32343EA525312BFD20292025B087E
:103FC000240545EAC12141EA5051D2EBC020994174
:103FD00025D407D1B0FA80F610FA06F164D000209B
:103FE000203608E0B1FA81F6B140C6F1200220FA8D
:103FF00002F21143B0404FEAF474B4EB465434F08B
:1040000001064FEA74040AD8D6F50016760D04F0BE
:104010000044F04061FA06F25040F1404840C00AC6
:1040200040EA415021F0004128BF5FEA500550F1BD
:10403000000044EBD12137E045EAC323DB0A45EA1F
:10404000C121C90AB6F120050EDD42EA0242120C76
:10405000C5F1200603FA06F6EB4042EA06056D427A
:10406000984161F100010DE062FA06F5F240554019
:1040700063FA06FC82EA0C02F3405A406D4290411A
:1040800061EB030111F4801F05D1641E620502D0AB
:104090006D004041494121F48011430875F100430E
:1040A00050F1000041EB0451F0BC70471CEB410F94
:1040B00015D223F0004352EA43060BD04FEA4C0CD2
:1040C000BCEB410F04D80C0D661E342EB7DDEBE7B8
:1040D000801A994150EA410608BF0021E4E708BF71
:1040E0001CEB430F28BF6FF00001DDE780B51348DC
:1040F00000F0A6F80FF24C020FF244010160426298
:1041000041600FF24402826381600FF24402C16099
:104110000161416181618162C16201634163C26386
:104120000164416401BD10B5044800F089F80446FB
:10413000206808B9FFF7DAFF204610BD780EFF1F90
:10414000000000002E00000066616C736500000036
:10415000747275650000000091FBF2F303FB12110D
:10416000C0E900317047000070470000841A71EB0D
:10417000030603D2001BB141121973414FF4001C16
:104180001CEB410F34BF7CEB430443E00C0DA4EB6C
:104190001356352E50DC45EAC323DB0A45EAC1211C
:1041A000C912B6F120050DDD63FA05F6EB4086EA8B
:1041B0000305124218BF45F00105C01851F1000176
:1041C0000CD213E062FA06F5F2405540F3415A4032
:1041D000B340F3405A408018594107D349085FEA79
:1041E00030005FEA350528BF45F0010501F5801173
:1041F000420875F1004250F1000041EB0451F0BC5F
:104200004FF4001C1CEB410F38BF70470020090D14
:10421000090570471CEB410F10D252EA43060BD040
:10422000BCEB410F05D80C0DAB43661E342EB5DD3B
:1042300002E0AB4380185941F0BC7047F0BC7047B6
:1042400070470000000000000000000000000000B7
:10425000000000000000000000000000000000005E
:1042600000004E6F6E4D61736B61626C6500000003
:1042700000486172644661756C74000000000000C3
:104280004D656D4D616E6167656D656E74000042D0
:1042900075734661756C7400000000000000557372
:1042A0006167654661756C740000000000000000E5
:1042B00000000000000000000000000000000000FE
:1042C00000000000000000000000000000000000EE
:1042D00000000000000000000000000000000000DE
:1042E000000000000000000000535643616C6C00A9
:1042F000000000000000000044656275674D6F6EAD
:1043000069746F72000000000000000000000000EF
:1043100000000000000050656E645356000000006D
:1043200000000000005379735469636B00000000C3
:1043300000000000444D413000000000000000007B
:10434000000000444D41310000000000000000006A
:104350000000444D41320000000000000000000059
:1043600000444D4133000000000000000000000048
:10437000444D4134000000000000000000000044F3
:104380004D41350000000000000000000000444DD9
:1043900041360000000000000000000000444D41D4
:1043A000370000000000000000000000444D4138CC
:1043B0000000000000000000000000444D413900F2
:1043C00000000000000000000000444D41313000BA
:1043D000000000000000000000444D4131310000A9
:1043E0000000000000000000444D41313200000098
:1043F00000000000000000444D4131330000000087
:10440000000000000000444D413134000000000075
:104410000000000000444D41313500000000000064
:1044200000000000444D415F4572726F7200000051
:104430000000004D434D000000000000000000009F
:1044400000004654464C0000000000000000000040
:1044500000526561645F436F6C6C6973696F6E00D5
:104460004C56445F4C565700000000000000004CC2
:104470004C570000000000000000000000005761E1
:10448000746368646F6700000000000000524E47CC
:10449000000000000000000000000000493243302E
:1044A000000000000000000000000049324331001D
:1044B00000000000000000000000535049300000E0
:1044C00000000000000000000053504931000000CF
:1044D00000000000000000005350493200000000BE
:1044E0000000000000000043414E305F4F525F4D1E
:1044F000425F6275660043414E305F4275735F4FA5
:10450000666600000043414E305F4572726F720074
:104510000000000043414E305F54785F5761726E77
:10452000696E6743414E305F52785F5761726E69C2
:104530006E6743414E305F57616B655F5570000099
:1045400000526573657276656435310000000000C5
:104550005265736572766564353200000000004371
:10456000414E315F4F525F4D425F6275660043417D
:104570004E315F4275735F4F666600000043414EE7
:10458000315F4572726F72000000000043414E318E
:104590005F54785F5761726E696E6743414E315F59
:1045A00052785F5761726E696E6743414E315F5753
:1045B000616B655F557000000052657365727665CA
:1045C00064353900000000005265736572766564D9
:1045D0003630000000000055415254305F52585FA1
:1045E00054580000000055415254305F455252006B
:1045F000000000000055415254315F52585F54583A
:104600000000000055415254315F455252000000F5
:1046100000000055415254325F52585F5458000018
:10462000000055415254325F4552520000000000D4
:104630000055415254335F52585F545800000000F7
:1046400055415254335F455252000000000000555E
:10465000415254345F52585F545800000000554195
:104660005254345F45525200000000000055415240
:1046700054355F52585F5458000000005541525461
:10468000355F4552520000000000004144433000B5
:104690000000000000000000000041444331000021
:1046A000000000000000000000434D5030000000FA
:1046B0000000000000000000434D503100000000E9
:1046C00000000000000000434D50320000000000D8
:1046D00000000000000046544D30000000000000C3
:1046E000000000000046544D3100000000000000B2
:1046F0000000000046544D320000000000000000A1
:10470000000000434D5400000000000000000000C5
:1047100000005254430000000000000000000000B0
:1047200000526573657276656438330000000000DE
:10473000504954300000000000000000000000500C
:104740004954310000000000000000000000504902
:1047500054320000000000000000000000504954E6
:104760003300000000000000000000005044423010
:10477000000000000000000000000055534230001F
:104780000000000000000000000055534244434474
:10479000000000000000000000454E45545F313528
:1047A00038385F54696D6572454E45545F54726187
:1047B0006E736D69740000454E45545F52656365C4
:1047C000697665000000454E45545F4572726F7210
:1047D00000000000004932533000000000000000DB
:1047E00000000000534448430000000000000000A7
:1047F00000000044414330000000000000000000C1
:1048000000004441433100000000000000000000AF
:104810000054534930000000000000000000000078
:104820004D43470000000000000000000000004C65
:104830005054696D65720000000000000000526570
:1048400073657276656431303200000000504F525B
:10485000544100000000000000000000504F52547E
:104860004200000000000000000000504F5254437E
:1048700000000000000000000000504F52544400AF
:10488000000000000000000000504F52544500009E
:1048900000000000000000005265736572766564D8
:1048A00031303800000000526573657276656431FE
:1048B00030390000000052657365727665643131ED
:1048C00030000000005265736572766564313131E5
:1048D0000000000052657365727665643131320004
:1048E00000000052657365727665643131330000F3
:1048F00000005265736572766564313134000000E2
:1049000000526573657276656431313500000000D0
:10491000526573657276656431313600000000526D
:104920006573657276656431313700000000526549
:10493000736572766564313138000000005265732A
:1049400065727665643131390000000000800340F3
:104950000090034000800B4000F00F4040F00F40FB
:1049600080F00F40C0F00F4000F10F40F0000A1D32
:104970003000180032001801600018186400181A7E
:104980006E00181F780013187D00131A8200131C84
:104990008C000E1296000E15A0000E18AA000E1B19
:1049A000B4000E1EC8000C1CE1000B1EFA000A1F0A
:1049B000000109080090044000A0044000B0044039
:1049C00000C0044000D0044000A0064000B00640F3
:1049D00000C0064000D0064000A00E4000B00E40CF
:1049E0006A6E6B6C676D4E4F3435363702040101C9
:1049F000200EFF1F700EFF1F200EFF1F200EFF1F37
:104A0000200EFF1FF50BFF1FDC0BFF1F0000000037
:104A10000000000000000000000000000000000096
:104A2000000000000000000000000000DFF800F0BF
:104A3000710DFF1FDFF8941340B231F8201040B21F
:104A40000128C0F2698140B2112880F265810022FC
:104A5000DFF87C331A7089B2312904DA0022DFF8DA
:104A600070335A7076E089B2612904DA0122DFF8E6
:104A700060335A706EE089B2912904DA0222DFF8BD
:104A800050335A7066E089B2C12904DA0322DFF894
:104A900040335A705EE089B2F12904DA0422DFF86B
:104AA00030335A7056E089B2B1F5907F04DC0522AC
:104AB000DFF81C335A704DE089B2B1F5A87F04DCF1
:104AC0000622DFF80C335A7044E089B2B1F5C07F9A
:104AD00004DC0722DFF8F8325A703BE089B2B1F506
:104AE000D87F04DC0822DFF8E8325A7032E089B25D
:104AF000B1F5F07F03DC0922B54B5A702AE089B288
:104B0000B1F5047F03DC0A22B14B5A7022E089B26E
:104B1000B1F5107F03DC0B22AD4B5A701AE089B25D
:104B2000B1F51C7F03DC0C22A94B5A7012E089B24C
:104B3000B1F5287F03DC0D22A54B5A700AE089B23B
:104B4000B1F5347F03DC0E22A14B5A7002E00F2234
:104B50009F4B5A7089B21A2903DA00229C4B9A7033
:104B600069E089B2332903DA0122994B9A7062E035
:104B700089B24C2903DA0222954B9A705BE089B224
:104B8000652903DA0322924B9A7054E089B27E2998
:104B900003DA04228E4B9A704DE089B2972903DA2A
:104BA00005228B4B9A7046E089B2B02903DA0622BF
:104BB000874B9A703FE089B2C92903DA0722844BF8
:104BC0009A7038E089B2E22903DA0822804B9A70A1
:104BD00031E089B2FB2903DA09227D4B9A702AE081
:104BE00089B2B1F58A7F03DA0A22794B9A7022E002
:104BF00089B2B1F5967F03DC0B22754B9A701AE0EF
:104C000089B2B1F5A37F03DA0C22714B9A7012E0DE
:104C100089B2B1F5AF7F03DC0D226D4B9A700AE0CB
:104C200089B2B1F5BC7F03DA0E22694B9A7002E0BB
:104C30000F22674B9A7089B21A2903DA0022644B5B
:104C4000DA7069E089B2332903DA0122604BDA7045
:104C500062E089B24C2903DA02225D4BDA705BE034
:104C600089B2652903DA0322594BDA7054E089B21C
:104C70007E2903DA0422564BDA704DE089B2972977
:104C800003DA0522524BDA7046E089B2B02903DA22
:104C900006224F4BDA703FE089B2C92903DA0722B6
:104CA0004B4BDA7038E089B2E22903DA0822484B2C
:104CB000DA7031E089B2FB2903DA0922444BDA7059
:104CC0002AE089B2B1F58A7F03DA0A22404BDA7012
:104CD00022E089B2B1F5967F03DC0B223C4BDA70FF
:104CE0001AE089B2B1F5A37F03DA0C22384BDA70EF
:104CF00012E089B2B1F5AF7F03DC0D22344BDA70DC
:104D00000AE089B2B1F5BC7F03DA0E22304BDA70CB
:104D100002E00F222E4BDA70704710B5040020001D
:104D200040B2FFF787FE2B48007810F0FD002949BC
:104D300008702848007850F0100026490870B82004
:104D40002549087025480078C006FBD42348007820
:104D5000C0F38100C0B20228F8D11D48C3781C48B6
:104D600082781B4841781A480078FFF75FFE1748A1
:104D700064B210EB8400807810F01F0018490870AE
:104D8000124864B210EB8400C07810F01F0050F09D
:104D9000400014490870114800788006FBD50F4880
:104DA00000784006FBD50C48007810F03F000A4917
:104DB00008700A480078C0F38100C0B20328F8D117
:104DC000024864B230F82400C0B210BD380BFF1F97
:104DD0007C0BFF1F01400640004006400640064095
:104DE00004400640054006400000000000000000AE
:104DF000002F000000000700070000147F147F143C
:104E000000242A7F2A1200626408132300364955C1
:104E1000225000000503000000001C224100000099
:104E200041221C000014083E08140008083E08082F
:104E3000000000A06000000808080808000060608A
:104E40000000002010080402003E5149453E0000C9
:104E5000427F4000004261514946002141454B31AB
:104E6000001814127F10002745454539003C4A4977
:104E700049300001710905030036494949360006E9
:104E80004949291E00003636000000005636000051
:104E900000081422410000141414141400004122CC
:104EA000140800020151090600324959513E007CA4
:104EB0001211127C007F49494936003E414141228E
:104EC000007F4141221C007F49494941007F090977
:104ED0000901003E4149497A007F0808087F000027
:104EE000417F4100002040413F01007F08142241E2
:104EF000007F40404040007F020C027F007F04089A
:104F0000107F003E4141413E007F09090906003EF5
:104F10004151215E007F091929460046494949311E
:104F20000001017F0101003F4040403F001F204041
:104F3000201F003F4038403F0063140814630007FF
:104F40000870080700615149454300007F41410056
:104F500000552A552A55000041417F0000040201F6
:104F600002040040404040400000010204000020D4
:104F700054545478007F4844443800384444442012
:104F800000384444487F00385454541800087E09BF
:104F900001020018A4A4A47C007F08040478000087
:104FA000447D4000004080847D00007F1028440044
:104FB0000000417F4000007C04180478007C080455
:104FC000047800384444443800FC24242418001891
:104FD000242418FC007C080404080048545454207D
:104FE00000043F444020003C4040207C001C204006
:104FF000201C003C4030403C004428102844001C49
:10500000A0A0A07C004464544C4414141414141440
:10501000DFF800F0EB2D0000DFF800F0FF2F0000BC
:10502000F0204D4908704C4800780006FBD54A48EE
:1050300000787121084201D0002000E00120704773
:1050400080B54648006850F4002044490860444850
:10505000006850F40020424908603F48007800068C
:10506000FBD5F0203C4908700A20FFF7D5FF01BDB1
:1050700010B582B00400A4B24FF4006000FB04F04D
:1050800000900920374908709DF8020036490870E1
:105090009DF80100354908709DF8000034490870FA
:1050A000FFF7BEFF002801D100200CE0A4B2002CC5
:1050B00008D17FF0010240F20C41200080B200F0E4
:1050C00003F800E0012016BD7CB504000D001600B9
:1050D000A4B24FF40060ADB200FB04500190ADB239
:1050E000042095FBF0F101FB1051002903D0EA21C7
:1050F0002048FFF78DFFADB2B5F5006F03DDEC2161
:105100001C48FFF785FF9DF80600174908709DF8B9
:105110000500164908709DF80400154908700096AE
:105120009DF80300144908709DF8020013490870A7
:105130009DF80100124908709DF80000114908709F
:10514000062008490870FFF76BFF002801D10020F6
:1051500000E0012076BD00000000024004F00140A4
:1051600008F001400700024006000240050002402E
:1051700004000240F45300000B0002400A00024009
:105180000900024008000240F0B4114E36683400B5
:105190000F4E366856F47F060D4F3E600E0616F031
:1051A000706656EA0076170517F470073E431F0431
:1051B00017F470273E43074F3E6000263500EDB2DE
:1051C0009D4201D26D1CFAE7014E3460F0BC70477D
:1051D00000F001404480044080B500F095F800F0F4
:1051E0002AF800F00AF8FDF71DFE01220121042033
:1051F000FDF7DCFCFBF758FCFEE780B50320FFF76A
:105200008CFD33490860324800684FF47A71484396
:10521000304908602F4800682F490968C1F30361CD
:10522000491CB0FBF1F02D4908605FF4E131052025
:10523000FCF755FB01BD2DE9F8432948294988426F
:105240000DD000208046B8F5826F08D2254850F86E
:105250002800234941F8280018F10108F3E7204805
:10526000FDF7B0F920480700204806002048040058
:10527000A01B80464046B0F10108002804D03078D9
:105280003870761C7F1CF5E71A4881461A480500DD
:10529000B5EB090080464046B0F10108002805D072
:1052A000002089F8000019F10109F4E713481449B6
:1052B000144A531A98464346B3F10108002B04D010
:1052C0000B780370491C401CF5E7BDE8F183000032
:1052D000180EFF1F140EFF1F448004401C0EFF1FFA
:1052E0000000FF1F000000001004FF1F44420000E8
:1052F0002C4A0000C00DFF1F780EFF1FF80BFF1F88
:1053000010500000D851000080B500F008F80C489B
:1053100000884FF6FE7108400949088001BDEFF38F
:10532000118072B64CF22051064A11804DF62811B8
:10533000044A1180C0B2002800D162B67047000054
:10534000002005400E20054019E050F8041BCB0753
:1053500044BFA9F101035918121F0023042A41F880
:10536000043BF9D25FEA827C0B4604D54FF0000C77
:10537000A1F800C09B1CD10744BF0021197050F850
:10538000042B002AE1D170470A2A2A2A2A6465667A
:1053900061756C745F69737220656E7465726564A3
:1053A000206F6E20766563746F722025642A2A2A26
:1053B0002A2A0A0A257320496E7465727275707400
:1053C00000000000443A5CCAA1C8FCB3CCD0F25C37
:1053D000554152545F494E545C436869705C737226
:1053E000635C4D4B36305F5379735469636B2E6346
:1053F00000000000443A5CCAA1C8FCB3CCD0F25C07
:10540000554152545F494E545C436869705C7372F5
:10541000635C4D4B36305F666C6173682E630000D1
:10542000443A5CCAA1C8FCB3CCD0F25C554152549A
:105430005F494E545C436869705C7372635C4D4BAA
:1054400036305F66746D2E6300000000443A5CCA1B
:10545000A1C8FCB3CCD0F25C554152545F494E54C4
:105460005C436869705C7372635C4D4B36305F6798
:1054700070696F2E63000000443A5CCAA1C8FCB397
:10548000CCD0F25C554152545F494E545C4368693C
:10549000705C7372635C4D4B36305F5049542E63C1
:1054A00000000000443A5CCAA1C8FCB3CCD0F25C56
:1054B000554152545F494E545C436869705C737245
:1054C000635C4D4B36305F756172742E6300000073
:1054D000443A5CCAA1C8FCB3CCD0F25C55415254EA
:1054E0005F494E545C436869705C7372635C6D69BC
:1054F00073632E630000000010B50749794418312A
:10550000064C7C44163404E00A68081D511888478C
:105510000146A142F8D110BD2C0000003800000067
:10552000417373657274696F6E206661696C65643E
:1055300020696E202573206174206C696E652025BA
:10554000640A000005FEFFFFB8000000C00DFF1F49
:10555000000000000ABDF8D0D0BDE2CBF8B2D9D728
:10556000F7A3ACC7EBD6D8D0C2CBA2C8EBB9CCBCA2
:10557000FE00000000F00BF8002801D0FFF7BCFF90
:105580000020C046C046FBF78FFA00F002F8012069
:10559000704700F001B800000746384600F002F8F6
:1055A000FBE700002021090326311820ABBEF9E7F4
:1055B00038B504460D46284600F006F8A84218BF44
:1055C0000024204632BD00000149FDF721BC00BF88
:1055D000B80BFF1F0ABDF8C8EBCBC0D1ADBBB7B548
:1055E000C8B4FDA3A1000000C046C046C046C046E6
:1055F000FFF7C0FF000000000000000000000000F6
:10560000000000000000000000000000000000009A
:10561000FFFFFFFFFFFFFFFF000000000000000092
:10562000000000000000000000000000000000007A
:10563000000000000000000000000000FFFFFFFF6E
:10564000FFFF00000000000000000000000000005C
:10565000000000000000000000000000000000004A
:10566000000000000000000000000000000000003A
:0C5670000000000000000000000000002E
:04000005000055E9B9
:00000001FF
